{
  "address": "0x2f32A4796bc8A37229FCfe8018f1fd6FBA19471C",
  "abi": [
    {
      "inputs": [
        {
          "internalType": "address payable",
          "name": "_automate",
          "type": "address"
        },
        {
          "internalType": "address",
          "name": "_taskCreator",
          "type": "address"
        }
      ],
      "stateMutability": "nonpayable",
      "type": "constructor"
    },
    {
      "inputs": [],
      "name": "automate",
      "outputs": [
        {
          "internalType": "contract IAutomate",
          "name": "",
          "type": "address"
        }
      ],
      "stateMutability": "view",
      "type": "function"
    },
    {
      "inputs": [],
      "name": "count",
      "outputs": [
        {
          "internalType": "uint256",
          "name": "",
          "type": "uint256"
        }
      ],
      "stateMutability": "view",
      "type": "function"
    },
    {
      "inputs": [],
      "name": "dedicatedMsgSender",
      "outputs": [
        {
          "internalType": "address",
          "name": "",
          "type": "address"
        }
      ],
      "stateMutability": "view",
      "type": "function"
    },
    {
      "inputs": [
        {
          "internalType": "uint256",
          "name": "amount",
          "type": "uint256"
        }
      ],
      "name": "increaseCount",
      "outputs": [],
      "stateMutability": "nonpayable",
      "type": "function"
    },
    {
      "inputs": [],
      "name": "lastExecuted",
      "outputs": [
        {
          "internalType": "uint256",
          "name": "",
          "type": "uint256"
        }
      ],
      "stateMutability": "view",
      "type": "function"
    }
  ],
  "transactionHash": "0xc0f55c27f4a09eb9d69dcb232178b0815a91695983eed2c10a72f6b806d9e902",
  "args": [
    "0xafd37d0558255aA687167560cd3AaeEa75c2841E",
    "0x23e359eCAB56210f4b8B559218C4d27A85b052b8"
  ],
  "numDeployments": 1,
  "solcInputHash": "2535e146dd7d8895f1166bb4fffea192",
  "bytecode": "0x60e060405234801561001057600080fd5b5060405161058538038061058583398101604081905261002f9161028f565b8181816001600160a01b03166080816001600160a01b0316815250506000826001600160a01b031663573ea5756040518163ffffffff1660e01b8152600401602060405180830381865afa15801561008b573d6000803e3d6000fd5b505050506040513d601f19601f820116820180604052508101906100af91906102c9565b9050806001600160a01b031663c415b95c6040518163ffffffff1660e01b8152600401602060405180830381865afa1580156100ef573d6000803e3d6000fd5b505050506040513d601f19601f8201168201806040525081019061011391906102c9565b6001600160a01b0390811660c05260405163cd3d4fb960e01b815260009185169063cd3d4fb990610149906002906004016102ed565b602060405180830381865afa158015610166573d6000803e3d6000fd5b505050506040513d601f19601f8201168201806040525081019061018a91906102c9565b90506000816001600160a01b031663ba1d0ff46040518163ffffffff1660e01b8152600401602060405180830381865afa1580156101cc573d6000803e3d6000fd5b505050506040513d601f19601f820116820180604052508101906101f091906102c9565b6040516337b6269f60e21b81526001600160a01b0386811660048301529192509082169063ded89a7c906024016040805180830381865afa158015610239573d6000803e3d6000fd5b505050506040513d601f19601f8201168201806040525081019061025d9190610315565b506001600160a01b031660a0525061034995505050505050565b6001600160a01b038116811461028c57600080fd5b50565b600080604083850312156102a257600080fd5b82516102ad81610277565b60208401519092506102be81610277565b809150509250929050565b6000602082840312156102db57600080fd5b81516102e681610277565b9392505050565b602081016006831061030f57634e487b7160e01b600052602160045260246000fd5b91905290565b6000806040838503121561032857600080fd5b825161033381610277565b602084015190925080151581146102be57600080fd5b60805160a05160c05161020b61037a600039600050506000818160c50152610107015260006061015261020b6000f3fe608060405234801561001057600080fd5b50600436106100575760003560e01c8063049aacfe1461005c57806306661abd146100a05780631c15ff77146100b757806328f150eb146100c057806346d4adf2146100e7575b600080fd5b6100837f000000000000000000000000000000000000000000000000000000000000000081565b6040516001600160a01b0390911681526020015b60405180910390f35b6100a960005481565b604051908152602001610097565b6100a960015481565b6100837f000000000000000000000000000000000000000000000000000000000000000081565b6100fa6100f5366004610195565b6100fc565b005b336001600160a01b037f000000000000000000000000000000000000000000000000000000000000000016146101785760405162461bcd60e51b815260206004820152601960248201527f4f6e6c7920646564696361746564206d73672e73656e64657200000000000000604482015260640160405180910390fd5b8060008082825461018991906101ae565b90915550504260015550565b6000602082840312156101a757600080fd5b5035919050565b808201808211156101cf57634e487b7160e01b600052601160045260246000fd5b9291505056fea26469706673582212209dce5eaed7e6bd61f77e86d7b06fdbb53c807fd7f08438ad02a3f36a950d209d64736f6c63430008170033",
  "devdoc": {
    "kind": "dev",
    "methods": {},
    "version": 1
  },
  "userdoc": {
    "kind": "user",
    "methods": {},
    "version": 1
  },
  "storageLayout": {
    "storage": [
      {
        "astId": 732,
        "contract": "contracts/Counter.sol:Counter",
        "label": "count",
        "offset": 0,
        "slot": "0",
        "type": "t_uint256"
      },
      {
        "astId": 734,
        "contract": "contracts/Counter.sol:Counter",
        "label": "lastExecuted",
        "offset": 0,
        "slot": "1",
        "type": "t_uint256"
      }
    ],
    "types": {
      "t_uint256": {
        "encoding": "inplace",
        "label": "uint256",
        "numberOfBytes": "32"
      }
    }
  }
}