{
  "address": "0x803e3B9f424167B75843c3f831F20F7d770260D9",
  "abi": [
    {
      "anonymous": false,
      "inputs": [],
      "name": "GetPriceEvent",
      "type": "event"
    },
    {
      "anonymous": false,
      "inputs": [
        {
          "indexed": true,
          "internalType": "uint256",
          "name": "timeStamp",
          "type": "uint256"
        },
        {
          "indexed": false,
          "internalType": "uint256",
          "name": "price",
          "type": "uint256"
        }
      ],
      "name": "PriceUpdated",
      "type": "event"
    },
    {
      "inputs": [],
      "name": "getPrice",
      "outputs": [],
      "stateMutability": "nonpayable",
      "type": "function"
    },
    {
      "inputs": [],
      "name": "price",
      "outputs": [
        {
          "internalType": "uint256",
          "name": "",
          "type": "uint256"
        }
      ],
      "stateMutability": "view",
      "type": "function"
    },
    {
      "inputs": [
        {
          "internalType": "uint256",
          "name": "_price",
          "type": "uint256"
        }
      ],
      "name": "updatePrice",
      "outputs": [],
      "stateMutability": "nonpayable",
      "type": "function"
    }
  ],
  "transactionHash": "0x2c7becc147e6757946b3fd5bc2e45d6152a279a0e6233157efa7a8813a216cda",
  "args": [],
  "numDeployments": 2,
  "solcInputHash": "76915e7841e02ab8a644db168cc8f0d1",
  "bytecode": "0x608060405234801561001057600080fd5b50610128806100206000396000f3fe6080604052348015600f57600080fd5b5060043610603c5760003560e01c80638d6cc56d14604157806398d5fdca146052578063a035b1fe146058575b600080fd5b6050604c36600460da565b6072565b005b605060af565b606060005481565b60405190815260200160405180910390f35b600081905560405181815242907f945c1c4e99aa89f648fbfe3df471b916f719e16d960fcec0737d4d56bd6968389060200160405180910390a250565b6040517f2309e1e9cfe0a2156ced195327abdec4cbed8b31c841c6f15bc67a383594140d90600090a1565b60006020828403121560eb57600080fd5b503591905056fea26469706673582212203b2fedf7e982c7f0a9dc3d7bafbe240ddb69661c59a322aaf85768c2a143764864736f6c63430008170033",
  "devdoc": {
    "kind": "dev",
    "methods": {},
    "version": 1
  },
  "userdoc": {
    "kind": "user",
    "methods": {},
    "version": 1
  },
  "storageLayout": {
    "storage": [
      {
        "astId": 3,
        "contract": "contracts/EventOracle.sol:EventOracle",
        "label": "price",
        "offset": 0,
        "slot": "0",
        "type": "t_uint256"
      }
    ],
    "types": {
      "t_uint256": {
        "encoding": "inplace",
        "label": "uint256",
        "numberOfBytes": "32"
      }
    }
  }
}